:100000000C9482010C94C6010C94E1010C94C6017D
:100010000C94C6010C94C6010C94C6010C94C60144
:100020000C94C6010C94C6010C949E150C94C60148
:100030000C94C6010C94C6010C94C6010C94C60124
:100040000C94C6010C94C6010C94C6010C94C60114
:100050000C94C601165C1E001F0020002100220027
:10006000230024002500260027002A002B0014006E
:100070001A000800150017001C0018000C001200E0
:1000800013002800390004001600070009000A00C8
:100090000B000D000E000F0033003400E1001D00C6
:1000A0001B00060019000500110010003600370083
:1000B0003800E500E000E300E200000000002C0052
:1000C00000000000E600E4000251015301000100BD
:1000D000010001000100010001002D0031002F008E
:1000E00030004C000100010001000100010001008E
:1000F00001005F0060006100570001000100010085
:10010000010001000100010001005C005D005E00D3
:1001100055005600E100010001000100010001004E
:10012000010059005A005B005400E500E000E300C4
:10013000E200000000000100000000006200630017
:100140000100010045003A003B003C003D003E003C
:100150003F00400041004200430044000100010014
:1001600001000100005C01000100010052000100DB
:100170002E0001000100010001000100010001004A
:100180000100500051004F0001003500E100010066
:1001900001000100010001000100010001002F0029
:1001A0003000E500E000E300E20000000000010094
:1001B00000000000E600E4000100530009023B00DB
:1001C000020100803209040000010301010009213D
:1001D0000101000122400007058103080001090414
:1001E000010001030000000921010100012281003A
:1001F000070583030800011201100100000008ED4B
:10020000FE696801000102030104033000000014CC
:100210000335003500500065007200630065006E14
:100220000074000000180373007400610072006322
:10023000006800650064007000690065000000044B
:1002400003090405010902A10185020901A10005B4
:1002500009190129051500250195057501810295EA
:1002600001750381030501093009311581257F9549
:10027000027508810609381581257F950175088169
:1002800006050C0A38021581257F9501750881063F
:10029000C0C005010980A101850319012AB7001515
:1002A0000126B700950175108100C0050C0901A158
:1002B00001850419012AA002150126A002950175E5
:1002C000108100C005010906A101050719E029E711
:1002D00015002501950875018102950175088103B6
:1002E0000507190029FF150026FF009506750881EE
:1002F00000050819012905950575019102950175FB
:10030000039103C011241FBECFE5D8E0DEBFCDBFEF
:1003100004B603FE24C08091780290917902A091E6
:100320007A02B0917B028730904BA740B04BB9F472
:10033000109278021092790210927A0210927B0247
:1003400014BE84B7877F84BF0FB6F894A89581B593
:10035000886181BD11BC0FBEE0E0F8E3099510E0B3
:10036000A0E6B0E0ECEEF7E302C005900D92AA3EE5
:10037000B107D9F722E0AAEEB0E001C01D92A8377C
:10038000B207E1F70E949D180C94D61B0C94000054
:10039000A82FB92F80E090E041E050EA609530E06E
:1003A00009C02D9182279795879510F0842795276E
:1003B000305EC8F36F5FA8F30895EADF8D939D93D5
:1003C0000895CF93CFB7CF93DF93C395839BE9F77E
:1003D000839B10C0839B0EC0839B0CC0839B0AC071
:1003E000839B08C0839B06C0C0914F02C395C093F6
:1003F0004F028BC06F93C0914E02DD27CA5ADD4F6A
:100400002F9365E5839B03C02F916F91E1CF0F93ED
:100410001F934F9320E040E15F9300B30C7003FB08
:1004200027F93F9350E03BE039C01C7040642F77C0
:10043000012F5F5F1EC0406810B31C702F775250B1
:100440001FC0406400B32F770C70D1F15F5F00C014
:1004500023C0406210B32F771C7091F15F5F00C022
:1004600025C00C701027515012F45D5F0000115030
:1004700027952C3F10B3C8F61C7001270150279513
:100480002C3FC8F64227499300B30C7010274F73D6
:10049000115027952C3FA8F64695469510B31C7031
:1004A00079F00127015027952C3F98F66B5A60F39D
:1004B000315000B3B0F600C010E81ABF002719C0D1
:1004C0003B503195C31BD04010E81ABF0881033C54
:1004D00009F10B34F9F020914C021981110F12131C
:1004E000EDCF4A81441F093651F10D3211F0013E22
:1004F00029F7009354023F915F914F911F910F9103
:100500002F916F91CAB7C7FD60CFDF91CF91CFBF59
:10051000CF91189520915402222369F31091520231
:100520001123E9F53430EAF13093520220934D0261
:1005300010914E023BE0311B30934E0232C00091CD
:100540005202013064F50AE54F7049F430917500AC
:1005500034FD28C000937500C5E3D2E027C04330C6
:1005600049F03091400234FD1DC000934002C1E4C7
:10057000D2E01CC030916C0234FD14C000936C02B8
:10058000CDE6D2E013C0052710E000C0000002BB9A
:100590001AC0052710E0221F1DC010E021C04AE547
:1005A00002C032ED432FC4E1D0E032E011B31C6051
:1005B000939A02B311BB5CE020E865E320FF0527B6
:1005C00002BB279517951C3FF0F66695B8F7B1F773
:1005D00020FF052702BB279517951C3FD0F62795CE
:1005E000179517FF052700001C3F02BBB0F62991A5
:1005F0003A9519F7037F10915302110FC651D0405D
:1006000002BB11F010934C0210E81ABF086011B33E
:10061000137F402F437F54E05A95F1F702BB11BB83
:1006200042BB69CF81E0089581E008950C941403E2
:1006300008950C9418031F93CF93DF9300D000D03C
:100640000F92CDB7DEB749835A836B8320910201A5
:1006500089819A8121111BC06623A9F00E94201371
:10066000182F682F89819A810E94CC1269817A8122
:10067000812F0F900F900F900F900F90DF91CF91DF
:100680001F910C94C8030E94F812182FEFCF0E94FC
:10069000201369817A81EDCFFC0140815181628113
:1006A000738184810C941B03CF93DF93EC010E9430
:1006B0004C03BE01DF91CF910C9419030E94D71512
:1006C0000E946A14811102C00E9407150C94D4057F
:1006D0000C94D70508950C946A0381E008950C9456
:1006E0006D03CF93C82F0E946B038C2FCF910C9476
:1006F0006F0308950E940C0E0E9479032FEF84E38C
:100700009CE0215080409040E1F700C000000C9434
:10071000C2150F931F93CF93DF93EC010E944C03FC
:100720008C01BE010E941603882329F1BE01C80175
:100730000E948E078823F9F0BE01C8010E94CF07EE
:100740008823C9F0BE01C8010E94F208882399F0ED
:100750008A81882339F001158CE5180751F00E3D88
:100760001C4579F0CE01DF91CF911F910F910C9430
:1007700012030E947A0380E0DF91CF911F910F91C5
:1007800008950E940715F7CF90E080E0089508953E
:10079000972F70E02CE0929F600D711D1124FB01DA
:1007A0009CE3899FE00DF11D1124EE0FFF1FEC5A11
:1007B000FF4F859194910895FC01EE0FFF1FE454C3
:1007C000FE4F859194910895CF93DF930E94C803C3
:1007D0000E94F904EC01811520E5920708F042C05F
:1007E000811530E4930708F0BDC0883E910528F5D7
:1007F000803E910508F09DC0883A910588F4853ABD
:10080000910508F08FC08130910509F492C00097DE
:1008100009F48FC0049708F08CC0D0E0C0E089C014
:100820008F3B910508F489C0805C9109C03CD105DB
:10083000A0F30E94DC03EC017CC08115904250F4CF
:10084000C11581E0D80708F074C0C03FD10528F376
:10085000D0656FC0C11590E3D90708F079C0CE010B
:100860009F70E7CF811525E5920758F5811534E58E
:10087000930708F0A6C0811542E5940750F4C1150E
:1008800081E5D80708F471C0DC2FCC27C16FD06A8E
:1008900050C0982F969596959E0123703327C115C9
:1008A000D34508F07FC0C1E0D0E002C0CC0FDD1F0F
:1008B0002A95E2F720E2929FC0011124C82BD92B80
:1008C0006FC0C11589E5D807A8F4C11598E5D90707
:1008D00008F07CC0C11526E5D20708F09ECF8C2F0A
:1008E0000E949005C82FD0E0DC2FCC27CC27DF71E9
:1008F000D0621FC0C1153AE5D30708F46CC0CE0121
:1009000090568115904208F088CF8D2F8F710E94EC
:10091000900590E0982F882788279F719C012C2BA9
:10092000E901E6CFC55AD0E0CC55DF4FC881D0E011
:10093000D064CE01DF91CF910895C85AD0E0CC0F9A
:10094000DD1FCA58DF4F0990D881C02DD464F1CF84
:10095000CE019927D3FF03C0EC01D86CEACFEC019C
:10096000D06CE7CFDF70D06AE4CFCE01E4E096959B
:100970008795EA95E1F783702C2F269526952370AD
:1009800090E2299F90011124382B8C2F8370C1E0B5
:10099000D0E002C0CC0FDD1F8A95E2F7C22BD32B2B
:1009A000DC68C7CFC1E0D0E002C0CC0FDD1F2A95C4
:1009B000E2F730E2939FC0011124C82BD92BDA68EB
:1009C000B8CFD82FCC27C46FD06AB3CFDC2FCC27B9
:1009D000C06FD06AAECF8C2F8F700E94900534E02C
:1009E000D695C7953A95E1F7CF709C2FEC01D06969
:1009F000A0CF82389105B1F1B0F48133910509F4AB
:100A000075C048F48932910509F469C08A329105AC
:100A100009F473C008958533910509F459C08933E9
:100A2000910501F10895833E9105A9F138F4803EC6
:100A30009105F9F0823E910549F10895863E9105B0
:100A4000A9F1873E9105C9F1843E910519F52091E0
:100A5000340221FF1FC08091330284FD14C087EE51
:100A600090E00895209133022370A1F080EE90E091
:100A700008952091330220FD47C03091340230FFA9
:100A800009C024FF44C090E080E004C020913302FC
:100A900022FDF7CF08952091330222FD3BC0309113
:100AA000340230FDE3CF24FFF5CFEDCF20913302A8
:100AB00023FFF0CF24FDE7CFD2CF2091330223FDD7
:100AC0002CC03091340231FFEECF84EE90E00895D7
:100AD0002091330225FFDECF89E290E00895209136
:100AE000330225FFD7CF85E390E0089520913302AC
:100AF00026FFD0CF8AE290E008952091330226FFAE
:100B0000C9CF81E390E0089589E390E0089583EEF2
:100B100090E0089582EE90E0089586EE90E00895CA
:100B20009091330292FF06C0282F28712830F9F4E3
:100B3000877F846093FF06C0282F28712831F1F445
:100B4000877E84612091340220FF06C0382F3871DF
:100B50003830D9F4877F816021FF06C0282F2871A3
:100B60002831D1F4877E816194FD877E0895282FF6
:100B700024712430F9F68B7F8860DCCF282F247114
:100B8000243101F78B7E8861DDCF382F3171313010
:100B900019F78E7F8860E0CF282F2171213121F74E
:100BA0008E7E8861E1CF08950C94D30508950C944E
:100BB000D605E82FF0E0EE0FFF1FED5DFD4F8081C1
:100BC00091810895089580EA8A95F1F70895CF9369
:100BD000DF93A3EBB0E048EB50E0C1E0D0E08D91B3
:100BE000E82FE295EF70F0E061A98F709E0101C0DF
:100BF000220F8A95EAF7922F9095962391AB82A9BE
:100C0000822B82AB4A175B0751F7A7EAB0E061E09D
:100C100070E08D91E82FE295EF70F0E041A98F70C0
:100C20009B0101C0220F8A95EAF7922F9095942399
:100C300091AB82A9822B82AB80E0A33BB80749F736
:100C400010921A021092190210922402109223029A
:100C500010921C0210921B02109226021092250282
:100C600010921E0210921D0210922802109227026A
:100C70001092200210921F0210922A021092290252
:100C8000109222021092210210922C0210922B023A
:100C900085E00E94E706DF91CF910C945E034F92AE
:100CA0005F926F927F928F929F92AF92BF92CF92FC
:100CB000DF92EF92FF920F931F93CF93DF9309E19F
:100CC00012E093EBC92E90E0D92E912CAA24A39484
:100CD000B12CD8016D907C90F801119211928F0186
:100CE000D6018D916D01C82FC295CF70D0E099A922
:100CF0008F70750101C0EE0C8A95EAF7892F8E2955
:100D000089AB8AA98E2C809488218AAB0E94E30546
:100D100087EA482E80E0582E30E020E0F801329734
:100D2000D2016D912D01862F82958F7090E0DC01AC
:100D3000D0968C914081518190E06F7002C0959562
:100D400087956A95E2F780FD3FC0C501022E02C07B
:100D5000880F991F0A94E2F7842B952B9183808347
:100D60002F5F3F4F2C303105D9F689A9882289AAF7
:100D70008AA9E82AEAAA81E020813181261537056F
:100D800009F480E0982AB2E003321B0709F0A1CFF2
:100D9000292D45E063E272E089E192E00E94E806D5
:100DA0000E946803892DDF91CF911F910F91FF90D1
:100DB000EF90DF90CF90BF90AF909F908F907F90FB
:100DC0006F905F904F90089590E080E0C5CF0895B8
:100DD000FF920F931F93CF93DF93F82E092F162FB7
:100DE000D72FC42F222349F081E08093EC000E948A
:100DF00068159093EB008093EA008091EC008823C3
:100E0000A1F08091EA009091EB000E947415069782
:100E100060F0EF2DF02FA12FBD2F90E080E0D0E00B
:100E20008C179D0744F01092EC00DF91CF911F9139
:100E30000F91FF900895219131912D933D9301964B
:100E4000EFCF0F931F93CF93DF93C62FD42F022F93
:100E5000FC0182818823C9F06093EF000E9468152D
:100E60009093EE008093ED0080E28C0F883008F0C4
:100E700050C0C77081E001C0880FCA95EAF7DF91C2
:100E8000CF911F910F910C94690B1091EF001613E5
:100E900035C08091ED009091EE000E947415883C61
:100EA000910560F5C0E2CD0F1D17B9F080E2810F0A
:100EB000883040F4177081E001C0880F1A95EAF776
:100EC0000E94700BC83048F481E09D2F977001C0DC
:100ED000880F9A95EAF70E94690B802F0E94560BA3
:100EE000C830B8F4D77081E001C0880FDA95EAF70E
:100EF000DF91CF911F910F910C94700B80E28C0FBA
:100F0000883038F4C77081E001C0880FCA95EAF7CD
:100F1000EFCFDF91CF911F910F9108959C01CB01ED
:100F2000233F4CE5340731F190F4283DFCE53F07C1
:100F3000E9F0293D4CE5340769F1273D3C4579F45A
:100F400026E241EE61EE0E94210780E00895253FF0
:100F5000FCE53F07B9F090F0263F3C45B9F0FC01B5
:100F600082818823D1F01092EF00089527E245EEA8
:100F700065EEE9CF26E241EE60EEE5CF27E245EEF1
:100F800064EEE1CF26E241EE62EEDDCF27E245EEF0
:100F900066EED9CF28E241E0EBCF81E00895CF9310
:100FA000DF93EC01FB018281882309F419C1C2306F
:100FB000FCE5DF07C0F1C6319CE5D90730F09E01A2
:100FC0002A5F3C452930310570F50E947D149093CD
:100FD000340280933302C031ECE5DE0709F4CFC060
:100FE00008F05BC0C8308CE5D80709F4B6C088F5B6
:100FF000C430ECE5DE0709F4A8C0C0F4C2308CE5CB
:10100000D80709F49CC0809133028260C330DC456C
:1010100009F498C080913302909134020E948B149D
:101020000E940C0E80E0DF91CF91089580913302F1
:101030008061C630ECE5DE0709F484C0809133029C
:101040008860C730DC4508F47DC08091330280623F
:1010500079C0CC308CE5D80709F489C070F4809150
:1010600033028C60CA30ECE5DE0709F46BC008F48B
:1010700078C0809133028E7F65C0CE308CE5D80772
:1010800009F479C0809133028B7FCF30DC4508F4BE
:1010900059C0809133028F7E55C0CB3FECE5DE070F
:1010A00009F457C030F5C3318CE5D80709F46FC097
:1010B00078F4C131ECE5DE0709F465C0C231DC45E6
:1010C00009F0A8CF0E940C0E809133028F773AC0AE
:1010D000C5318CE5D80709F462C008F476C0809168
:1010E00034028160CA3FDC4509F094CF809334021A
:1010F00091CFCF3FFCE5DF0709F44DC088F4809124
:1011000034028D7FCD3F9CE5D90781F38091340275
:101110008E7FCE3FDC4550F3809134028360E6CF72
:10112000C130FDE5DF0709F459C008F444C080E090
:10113000C230DD4509F06ECF0E9409156BCF80915A
:10114000330281608093330265CF809133028460E3
:10115000F9CF809134028260C9CF809133028064DC
:10116000F1CF0E940C0E809133028068EBCF80910A
:1011700033028D7FE7CF80913302877FE3CF809169
:1011800033028F7DDFCF809133028F7BDBCF809165
:101190003302837FD7CF809134028C7FA7CF809199
:1011A000330282FB992790F921E0922790FB82F984
:1011B00090FB83F9C7CF80913402982F909591705E
:1011C0008E7F892B90FB81F991CF0E940C0E90911C
:1011D0003302892F97FB87F98058B4CF81E0ACCFD9
:1011E00081E021CFCF93DF93EB0186319C4511F550
:1011F0000E94B5139A81992399F08A7A91E009F4B3
:1012000090E09093F000811109C089E20E94901350
:101210000E94011480E0DF91CF91089585E3F6CF1D
:101220008091F000811104C089E20E949713F0CFF1
:1012300085E3FBCF81E0EFCF9093F6008093F5003C
:101240000895E091F500F091F600309721F00190BB
:10125000F081E02D099480E00895E091F500F0918F
:10126000F600309721F00280F381E02D0994089573
:10127000E091F500F091F600309721F00480F581BF
:10128000E02D099408952091F3003091F40028177F
:10129000390771F09093F4008093F300E091F5002A
:1012A000F091F600309721F00680F781E02D099447
:1012B00008952091F1003091F2002817390771F05C
:1012C0009093F2008093F100E091F500F091F60028
:1012D000309721F00084F185E02D0994089584B7BA
:1012E000806884BF84B7806884BF08950895089596
:1012F0000C94760908950C947A090E946F090E9453
:1013000077090C94780981E008950E9461150E9484
:10131000E7050E94EB150C947B097F928F929F92B8
:10132000AF92BF92CF92DF92EF92FF920F931F93F3
:10133000CF93DF93CDB7DEB72A970FB6F894DEBF11
:101340000FBECDBF0E944F060E948309882309F477
:1013500071C048EFA42E40E0B42E10E000E0702EE3
:10136000802F0E94D9056C01F501819091905F0159
:101370008816990609F458C08091780181FD0E9471
:10138000E20580E0EE24E394F12C8C249D2494016A
:101390002E213F21232B09F441C08E837F82CE2052
:1013A000DF2081E0CD2809F480E088870E9468155D
:1013B0008160782F9A8789874E815F8168858A85C9
:1013C0000E943F0A000F111FF801E850FF4F808173
:1013D0009181E826F926F182E0820E9478170E9426
:1013E00021099091F7008917B1F10E94210980939A
:1013F000F7002A960FB6F894DEBF0FBECDBFDF917F
:10140000CF911F910F91FF90EF90DF90CF90BF9001
:10141000AF909F908F907F900C9471038F5FEE0C34
:10142000FF1C8C3009F0B3CF0F5F1F4F0530110543
:1014300009F095CF8FEF89838A831B820E946815FC
:101440008160782F9D838C8349815A816B818D8146
:101450000E943F0AC2CF2A960FB6F894DEBF0FBE95
:10146000CDBFDF91CF911F910F91FF90EF90DF9053
:10147000CF90BF90AF909F908F907F900895CF9323
:10148000DF93CDB7DEB72B970FB6F894DEBF0FBE54
:10149000CDBF4F83588769877A878B871E821D82CD
:1014A00085E0FE013796DE01119601900D928A9536
:1014B000E1F749815A816B817C818D819E812B96D8
:1014C0000FB6F894DEBF0FBECDBFDF91CF910C9465
:1014D000AC10FC01808191810C946213CF93C82FD2
:1014E000882309F48BC08238C1F40E94210981FD50
:1014F00085C089E30E9490130E9401142FEF81EEB2
:1015000094E0215080409040E1F700C0000089E362
:101510000E949713CF910C9401148338A1F40E9478
:10152000210980FD6BC083E50E9490130E94011485
:101530002FEF81EE94E0215080409040E1F700C011
:10154000000083E5E5CF8438A1F40E94210982FDE3
:1015500055C087E40E9490130E9401142FEF81EE82
:1015600094E0215080409040E1F700C0000087E403
:10157000CFCF8CEF8C0F813A90F46C2F809160006C
:10158000909161000E942015882329F08C2F0E94E1
:1015900097130E9401148C2F0E949013BBCF80E2FE
:1015A0008C0F883048F4C77081E001C0880FCA955D
:1015B000EAF70E94B813AECFEBE5EC0FE33040F44E
:1015C000F0E0EA51FF4F808190E0CF910C94430905
:1015D000E8E5EC0FE73150F4F0E0EE0FFF1FE854C0
:1015E000FF4F80819181CF910C945909C03F30F019
:1015F0008C2F0E948616CF910C946D17CF91089571
:10160000882309F452C0823871F40E94210981FFB5
:101610004CC089E30E9490130E94011489E30E9448
:1016200097130C940114833859F40E94210980FF08
:101630003CC083E50E9490130E94011483E5EFCF24
:10164000843859F40E94210982FF2FC087E40E9448
:1016500090130E94011487E4E2CF9CEF980F913A17
:10166000F0F290E2980F983050F4877091E001C04A
:10167000990F8A95EAF7892F0E94BE13D2CF9BE576
:10168000980F933020F490E080E00C94430998E5A3
:10169000980F973120F490E080E00C945909803F36
:1016A00020F00E94EE160C946D170895CF93C82F6A
:1016B0000E946E0AC93349F42FEF87EE93E0215060
:1016C00080409040E1F700C000008C2FCF910C9437
:1016D000000B882321F00E94B8130C940114089584
:1016E000882321F00E94BE130C9401140895BF9228
:1016F000CF92DF92EF92FF920F931F93CF93DF93DE
:101700006C01D62FC72FFC01058102950F70128145
:1017100011110E94D5130E94AE13E82E882371F098
:101720001123B1F080E28D0F883090F082E00E94AA
:101730004C140E94AE1391E0E82EE926BC2EB29420
:101740009FE0B922EB2DF0E0E852F44E0C947B1BA5
:10175000E12CF4CF0C2F0F70C07F11F00295007FA9
:101760001123A9F0002359F080E28D0F883010F08A
:10177000D11109C0802F0E94B8130E9401148D2F2F
:101780000E946E0A14C0802F0E94C813F6CF8D2FBE
:101790000E94000B002359F080E28D0F883010F07A
:1017A000D1112CC0802F0E94BE130E9401142B2D3A
:1017B0002850330B2430310520F40E9421090E9467
:1017C0007103EE2009F4D5C10E94AA1380FDD1C196
:1017D000F60112820E94A4130E943012C6010E94D8
:1017E000DA0D0E94A413DF91CF911F910F91FF900A
:1017F000EF90DF90CF90BF900C945112802F0E94F9
:10180000CE13D3CFFC2FFF70FF2EC07FC03219F054
:10181000F29480EFF822DD2369F0D13049F11123F1
:1018200091F1002351F1F601858180FFA8CF8F70DF
:10183000858323C0112381F0011106C00E94E813A3
:101840008F290E94690BB3CF0130C1F70E94E813C2
:101850008F290E94EE13ABCF011106C00E94F7132F
:101860008F2D0E94700BA3CF013009F4A0CFF6CFCB
:10187000112329F0063008F09ACF8F2DE2CF0530E2
:1018800008F095CFEDCF002359F3D93349F4FFEF9A
:1018900027EE33E0F15020403040E1F700C0000077
:1018A0008D2F0E94000B83CF8C2F86958695837099
:1018B00069F0813009F07BCF8D2F9C2F937011112F
:1018C00002C090E080E00E94590971CF8D2F9C2FBB
:1018D0009370111102C090E080E00E94430967CF2D
:1018E000112309F1D53F99F0D63FB9F0D43F49F41F
:1018F00080912D0290912E02816090932E02809310
:101900002D028D2F0E9486160E946D1750CF809158
:101910002D0290912E028260F0CF80912D02909145
:101920002E028460EACFD53F89F0D63FA9F0D43F9C
:1019300049F480912D0290912E028E7F90932E0279
:1019400080932D028D2F0E94EE16DECF80912D0206
:1019500090912E028D7FF2CF80912D0290912E02D8
:101960008B7FECCF8C2F837009F041C011111FCFFA
:101970004D2F429546954770440F440F0D2F0F7021
:1019800010E030E020E0042E04C0000F111F221FE1
:10199000331F0A94D2F760E070E0CB01D4FF0FC090
:1019A0006FE070E080E090E004C0660F771F881F52
:1019B000991F4A95D2F76095709580959095C69538
:1019C000C695C370602B712B822B932BC23049F0CC
:1019D00058F4C13019F00E94E211E9CE0E94D011F2
:1019E000E6CE0E94F411E3CE0E94CE11E0CE8695A1
:1019F000112311F08C2F8170882309F4D8CE4D2F3C
:101A0000429546954770440F440F0D2F0F7010E01C
:101A100030E020E0042E04C0000F111F221F331FEE
:101A20000A94D2F760E070E0CB01D4FF0FC06FE002
:101A300070E080E090E004C0660F771F881F991F58
:101A40004A95D2F76095709580959095C695C69504
:101A5000C370602B712B822B932BC23049F058F44A
:101A6000C13019F00E94A712A2CE0E9495129FCEFB
:101A70000E94B9129CCE0E940A1299CECF701123F7
:101A800029F08C2F0E9430128D2FDBCE8D2F0E94DB
:101A9000700B8C2F0E9451128ACED23F89F160F4D4
:101AA000D03FC9F0D13F29F1112309F442C00111FF
:101AB00066CE8C2F8F7121C0D33F39F1D43FA1F76F
:101AC000112369F1CF718C2F0E94301263E08C2FAB
:101AD0000E9437146CCE112341F0053008F067CE18
:101AE0008C2F8F710E94741262CE063008F05FCE88
:101AF000F7CF8C2F8F71112369F20E94301257CECD
:101B00008C2F8F711123C9F3C5CF112329F08C2F8E
:101B10008F710E941B124BCE0E94161248CE81E09C
:101B20000E944C14023008F442CE82E00E944C1411
:101B30003ECE002359F0D93309F0B2CE8FEF97EEA5
:101B4000E3E081509040E040E1F7A8CE8C2F8F7108
:101B5000A1CF4C2F4F706D2FC6010E94C4030E946D
:101B6000461125CE4C2F4F706D2FC6010E94C70322
:101B70001ECEDF91CF911F910F91FF90EF90DF90DC
:101B8000CF90BF9008950F931F93CF93DF93EC01F5
:101B9000688179818A810E946C138C010E94CB122A
:101BA0000E94CD11B801CE01DF91CF911F910F910D
:101BB0000C94770BCF93DF93EC018B819C81892B65
:101BC00029F08881998189238F3F19F4DF91CF9182
:101BD0000895CE010E9489038823C1F3CE010E949B
:101BE000C30DCE01DF91CF910C9454030E94D51305
:101BF0000E94E5130E9401140E9491180E946D1723
:101C000090E080E00E94430990E080E00C94590944
:101C10000E949E130C94F60D0E94C5130C94080E9E
:101C2000E92FE295EF70E250EE3070F4F0E0E85109
:101C3000F44E0C947B1B803F19F020F4883E20F476
:101C400081E00895843FE1F380E00895883EC0F389
:101C5000813FD1F7F5CF93FB882780F908950E9443
:101C600062130C94100ECF93DF9300D000D00F922C
:101C7000CDB7DEB70F900F900F900F900F90DF91C0
:101C8000CF910895CF93DF9300D000D000D0CDB78F
:101C9000DEB726960FB6F894DEBF0FBECDBFDF913C
:101CA000CF9108951F93CF93DF93C091030116E066
:101CB000809104018C1304C0DF91CF911F9108958E
:101CC000D0E01C9FF0011D9FF00D1124EB5FFE4F33
:101CD0004081518162817381848195810E94420E8D
:101CE0002196C770E5CF4091350150913601609142
:101CF0003701709138018091390190913A010C942B
:101D0000420E1F93CF93DF9380913A01807FC1F4FD
:101D1000809137018823A1F080910301C0910401D3
:101D2000609135017091360140913801509139012F
:101D3000D62FD723DA01A095B09516E0C81304C0BA
:101D4000DF91CF911F91089590E04115510511F059
:101D5000DF3F31F401968770F1CF2A0F3B1F17C088
:101D6000189FF001199FF00D1124EB5FFE4F2181A8
:101D70002713F0CF20812613EDCF22812111EACF46
:101D8000238134812417350740F3241B350B283C6D
:101D9000310500F720913A012F70206120933A011C
:101DA00026E0289FF001299FF00D1124E65FFE4FE9
:101DB00080818F708061808385E391E00E94DA0DDD
:101DC000DF91CF911F910C94520EBF92CF92DF9270
:101DD000EF92FF920F931F93CF93DF93CDB7DEB7B0
:101DE00061970FB6F894DEBF0FBECDBF8C0185E0C2
:101DF000F801DE011D9601900D928A95E1F7D80158
:101E00004C9111965C9111971296EC9012978091DB
:101E1000380190913901009709F47FC12091350173
:101E200030913601622F63236F3F09F476C1139618
:101E3000CD90DC90B0903701BB2009F411C1C816D9
:101E4000D906D0F1F601E81BF90BCF01FF24F3947A
:101E5000883C910508F0F12C80913A01982F907FF1
:101E6000FF2009F4B8C091117FC0FE2C351329C0A2
:101E7000241327C0E11025C08F70806180933A0140
:101E80000E94730E85E391E00E94DA0D80913A0181
:101E9000D80115968C938F2D61960FB6F894DEBFFE
:101EA0000FBECDBFDF91CF911F910F91FF90EF90AB
:101EB000DF90CF90BF900895809590958C0D9D1DDB
:101EC000C5CFCD2829F0852F84238F3F09F041C14C
:101ED00080E0B82FB170DB2E80FF3CC08091030101
:101EE0002091040136E0821315C04D875E878D85F1
:101EF0009E850E946213292F22952F702230F0F0C8
:101F0000243018F59F70F1F0F8019581907FD1F49D
:101F1000D12C1EC090E0389FF001399FF00D1124A4
:101F2000EB5FFE4F6181651306C06081641303C0DF
:101F30006281E6120FC001968770D5CF9F7011F0B5
:101F4000882331F3805E883018F3C8010E94DA0DCF
:101F5000FD2CA1CFEE2009F49ECF80913A01816043
:101F600080933A01F12C97CF351306C0241304C097
:101F7000D801EE2009F49AC04D875E878D859E8535
:101F80000E942F0E882319F1EE2009F180913A0169
:101F9000803270F0209135013091360138872F83DF
:101FA0001986DB86CA868C87CE0107960E94DA0DD9
:101FB00086E0F801A5E3B1E001900D928A95E1F782
:101FC0000E94810E0E94730EFF24F39464CFC80117
:101FD0000E94DA0DF9CF911113C07C2DD98AC88ADD
:101FE0006E2D89890E94330E85E391E00E94DA0DFF
:101FF00086E0E5E3F1E0DF011D928A95E9F763C031
:10200000351312C0241310C0E1100EC0F8018583EF
:10201000C8010E94DA0DE5E3F1E086E0DF011D92E0
:102020008A95E9F7FB2C37CF4D875E878D859E8596
:102030000E942F0E882359F2EE2049F280913A0136
:10204000803208F4B5CF20913501309136013A83C2
:1020500029831B82DD82CC828E83CE010196A6CF9E
:10206000C816D90698F1F601E81BF90BCF01F12C3F
:10207000883C910508F049C0FE2CEE2009F4A7CF5A
:10208000351332C0241330C080913A0180FD23C043
:10209000982F907F01F1D80115968C931597903F5A
:1020A00039F0982F907F905F8F70892B15968C93C5
:1020B000C8010E94DA0D86E0F801A5E3B1E00190C5
:1020C0000D928A95E1F70E94730EE5CE809590956A
:1020D0008C0D9D1DCCCF86E0F801A5E3B1E0019009
:1020E0000D928A95E1F7D7CE4D875E878D859E85C7
:1020F0000E942F0E81115CCF80913A018160809304
:102100003A01C8010E94DA0DC6CE7C2DD98AC88A50
:102110006E2D89890E94330E6BCFEE2009F457CFC4
:102120004D875E878D859E850E942F0EF82E882311
:1021300009F44DCF86E0F801A5E3B1E001900D92DE
:102140008A95E1F785E391E00E94690A0E94810E79
:10215000BACF81E08E25BDCE1F93CF93DF93CDB74D
:10216000DEB72C970FB6F894DEBF0FBECDBF4F83FE
:10217000588769877A878B879C87CE0107960E944C
:10218000E50E882369F08A859B85892B39F04F817C
:102190005885842F85238F3F09F071C016E05FC0FA
:1021A00086E0FE013796DE01119601900D928A9528
:1021B000E1F78A859B85892B89F388859F8189230F
:1021C0008F3F61F32091040130E0C90101968770CF
:1021D0009927409103014817190671F40E940C0ECB
:1021E000109204011092030186E0E5E3F1E0DF01C3
:1021F0001D928A95E9F7D2CF96E0929FD001939FE6
:10220000B00D1124AB5FBE4FFE01319601900D92CF
:102210009A95E1F7809304010E94520EBFCF819FEF
:10222000C00111248B5F9E4F0E94E50E8823E9F0C8
:10223000E09103011E9FF0011124EB5FFE4F4081EE
:10224000518162817381848195810E94420E8091C7
:10225000030190E001968770992780930301809194
:102260000301909104018913DACF2C960FB6F894EC
:10227000DEBF0FBECDBFDF91CF911F91089569855D
:102280007A858B859C850E94420E88CFEF92FF92C3
:102290000F931F93CF93DF938C01892B81F0F12C47
:1022A000EE24E394E8012196F8018491843770F4D8
:1022B000843008F05FC08130B1F08230A1F1DF914D
:1022C000CF911F910F91FF90EF900895853709F4FA
:1022D0004CC008F43DC09CE7980F903780F78F778B
:1022E0000E94000B49C00E5F1F4FFE01849190E2D7
:1022F000980F983060F48770FE2D01C0FF0F8A950B
:10230000EAF78F2F0E94D8130E94011402C00E9486
:102310006E0A8F2D815030F2EFE9FFE03197F1F72F
:1023200000C00000F7CF0E5F1F4FFE01849190E2C6
:10233000980F983050F48770FE2D01C0FF0F8A95DA
:10234000EAF78F2F0E94DE13DFCF0E94000BE1CF50
:102350000E5F1F4FFE01C491C150D8F28FE99FE07C
:102360000197F1F700C00000F7CF0E5F1F4FFE018D
:10237000F490CFCF0E946E0A8E01CBCF08950C94BB
:10238000BE110E94BF116093670170936801809332
:10239000690190936A010C94F60D08950C94C11193
:1023A0000F931F93009167011091680120916901BB
:1023B00030916A01602B712B822B932B1F910F910F
:1023C0000C94C1110F931F93009167011091680144
:1023D0002091690130916A01602371238223932344
:1023E0001F910F910C94C1110F931F9300916701DE
:1023F000109168012091690130916A01602771276D
:10240000822793271F910F910C94C1110C94BE1138
:102410000C9406120E940812609363017093640189
:1024200080936501909366010C94F60D60E070E076
:10243000CB010C940A120F931F9341E050E060E02F
:1024400070E08A019B0104C0000F111F221F331F7F
:102450008A95D2F7C901B8011F910F910C940A1205
:102460000F931F9341E050E060E070E004C0440F20
:10247000551F661F771F8A95D2F78091630190914F
:102480006401A0916501B09166018A019B01082B4E
:10249000192B2A2B3B2BC901B8011F910F910C94CA
:1024A0000A120F931F9341E050E060E070E004C017
:1024B000440F551F661F771F8A95D2F7CB01BA01CB
:1024C00060957095809590950091630110916401DD
:1024D000209165013091660160237123822393234B
:1024E0001F910F910C940A120F931F9341E050E03B
:1024F00060E070E004C0440F551F661F771F8A9587
:10250000D2F78091630190916401A0916501B0912F
:1025100066018A019B01082719272A273B27C90141
:10252000B8011F910F910C940A120F931F93009101
:102530006301109164012091650130916601602B67
:10254000712B822B932B1F910F910C940A120F93D6
:102550001F930091630110916401209165013091F6
:10256000660160237123822393231F910F910C94A2
:102570000A120F931F93009163011091640120913F
:1025800065013091660160277127822793271F918B
:102590000F910C940A1208952CE0929F800D112443
:1025A000982F977041E001C0440F9A95EAF78695FD
:1025B0008695869595E0899FF0011124E55CFE4F94
:1025C00090E080E070E05191DF0111979B01082EAF
:1025D00002C0369527950A94E2F7217021952527A8
:1025E000242325272C9301968530910561F70895C2
:1025F0002CE0929F800D1124982F977086958695D8
:10260000869525E0829FF0011124E55CFE4F50E0A5
:1026100040E080E0219130E0092E02C036952795F8
:102620000A94E2F721703327042E01C0220F0A9486
:10263000EAF7822B4F5F5F4F4530510559F70895F8
:10264000BF92CF92DF92EF92FF920F931F93CF939F
:10265000DF938C01C0906301D0906401E09065012C
:10266000F09066018091670190916801A0916901E5
:10267000B0916A01C82AD92AEA2AFB2ACFE1D0E020
:10268000BC2ED701C6010C2E04C0B695A795979510
:1026900087950A94D2F780FD0EC0219788F7B12C58
:1026A0008B2DDF91CF911F910F91FF90EF90DF90D5
:1026B000CF90BF900895B8018C2F0E94E40301973A
:1026C00061F3EECFCF93DF93EC010E942013BE01A4
:1026D000DF91CF910C94E4031F93CF93DF93EB0131
:1026E00090910201992331F0CB01DF91CF911F919D
:1026F0000C946213882379F0CB010E942013182FC9
:10270000682FCE010E94CC12BE01812FDF91CF91A4
:102710001F910C94E403CB010E94F812182FF4CF00
:10272000682F80916000909161000C945615682F7D
:1027300080916000909161000C9458158091600028
:10274000909161000C945A1580916B018595859547
:102750008595089580916B018770089590916B0124
:10276000977081E009F480E00895809177010895E1
:1027700090917701892B80937701089580959091AE
:102780007701982390937701089510927701089527
:1027900090917601892B8093760108958095909190
:1027A000760198239093760108951092760108950A
:1027B00090917501892B8093750108958095909172
:1027C00075019823909375010895109275010895ED
:1027D00080916C01089508950C94EB1390916C0115
:1027E000981721F080936C010C94EC13089580915C
:1027F0006C01882329F010926C0180E00C94EC139A
:102800000895E0916000F0916100809177018083EC
:10281000E0916000F0916100808190917601892BB8
:102820008083E0916000F09161008081909175015A
:10283000892B808390916C01992381F0E091600055
:10284000F09161008081892B80838091600090915C
:1028500061000E940E1581110E94F71380916000A3
:10286000909161000C942D0908950C94341498E013
:10287000899F90011124622B60936B010E9430129A
:1028800080916B018595859585950C9435141092F2
:102890006B0180E00C94351490916B018095892335
:1028A00080936B01282F277071F4282F082E000CBD
:1028B000330B9217130639F08595859585950E94FF
:1028C00051120C94471408956FEF7FEF90E080E071
:1028D0000C94C01B90E080E00E949D1B21E08C3E88
:1028E0009E4F09F020E0822F089582E090E00C9442
:1028F000951B83E090E00C94951BCF9384E090E0CF
:102900000E94951BC82F81E290E00E94951B982F92
:102910008C2FCF910895CF93C92F682F84E090E03A
:102920000E94A31B6C2F81E290E0CF910C94A31B1B
:10293000AB01BC018FE090E00C94B41BAB01BC0177
:1029400083E190E00C94B41B60E070E0CB010C9448
:102950009E1460E070E0CB010E9498140C94A414C3
:102960006CEE7EEF90E080E00E94C01B60E082E0B1
:1029700090E00E94A31B60E083E090E00E94A31B14
:1029800010926701109268011092690110926A0119
:1029900060E084E090E00E94A31B60E081E290E0B0
:1029A0000E94A31B60E085E090E00E94A31B60E012
:1029B00086E090E00E94A31B6FEF87E090E00E940A
:1029C000A31B40E050E0BA0188E090E00E94B41BF5
:1029D00060E08DE090E00E94A31B40E050E0BA016F
:1029E00088E190E00E94B41B60E087E190E00E94E3
:1029F000A31B40E050E0BA018CE190E00E94B41BC0
:102A000060E080E290E00E94A31B0C94A9140C9457
:102A1000B014682F8EE090E00C94A31B9C012E5FF5
:102A20003F4FAC01485F5F4F80E02417350709F442
:102A30000895F90191919F019923B9F38F5FF5CF23
:102A4000662349F0FC01329608962191261729F059
:102A5000E817F907D1F780E0089581E008959C0117
:102A6000FC0132969FEF80E04191461751F09F3F65
:102A700019F4411101C0982F8F5F8630A9F79F3F4D
:102A800009F40895290F311D97FD3A95F9016283E4
:102A90000895FC01329608962191261303C0DF01A8
:102AA00011971C92E817F907B9F708950C942F15A0
:102AB0000C944915029626E0FC0111922A95E9F73B
:102AC00008958BE083BF8AEF8CBF82E089BF0895B1
:102AD0002FB7F89480912F0290913002A09131028B
:102AE000B09132022FBF0895CF92DF92EF92FF9202
:102AF0000F931F932FB7F89440912F0250913002FB
:102B000060913102709132022FBF6A017B01EE2485
:102B1000FF248C0130E020E0C016D106E206F30667
:102B200050F0481B590BCA011F910F91FF90EF9075
:102B3000DF90CF90089541505109F3CF78941F92C0
:102B40001FB61F9211248F939F93AF93BF938091D1
:102B50002F0290913002A0913102B0913202019681
:102B6000A11DB11D80932F0290933002A0933102DA
:102B7000B0933202BF91AF919F918F911F901FBE72
:102B80001F90189588E198E00FB6F894A89581BD3C
:102B90000FBE91BDA895F894D8E0CEE528E329931F
:102BA00020E0299314BEFFCF08950C9464140E9472
:102BB0004F068FE39CE90197F1F700C000000E94E7
:102BC0004F0680E00E94D90580FF04C00E94D51501
:102BD0000C94C21508950E946A14811102C00E94CB
:102BE00007150E947514809378010E947D149093BC
:102BF0003402809333020E947914682F70E090E0D1
:102C000080E00C94CE118091800180FF12C0609111
:102C1000670085E0689FB0011124759567957595EB
:102C2000679560387105A8F561157105A1F1862FCA
:102C3000089581FF09C06091670085E0689FB00139
:102C4000112475956795EDCF6091670082FD0AC0EC
:102C500080917F018823D1F0909166006091670098
:102C6000891728F085E0689FB0011124DACF869F8C
:102C7000B001112485E0869F9001879F300D1124BB
:102C8000692F70E0C9010E94671BCBCF65E070E03F
:102C9000CECF8FE7089581E008958091800180FF75
:102CA0000CC06091630070E07595679575956795A8
:102CB0006115710549F1862F089581FF06C0609165
:102CC000630070E075956795F3CF6091630082FDB6
:102CD0000BC090917F019923A1F0609162008091D7
:102CE0006300961738F0682F70E06038710500F3C4
:102CF0008FE70895899FC001112470E00E94671B2F
:102D0000F4CF61E070E0D7CF81E00895803F31F4E7
:102D10000E9403168195809383010895813F19F4E1
:102D20000E940316F8CF823F31F40E94031681956A
:102D3000809382010895833F19F40E940316F8CF0F
:102D4000893F29F40E944D168093840108958A3F9B
:102D500021F40E944D168195F7CF8B3F31F40E94EC
:102D60004D1681958093850108958C3F19F40E943A
:102D70004D16F8CF843F31F48091810181608093BA
:102D800081010895853F21F4809181018260F7CF10
:102D9000863F21F4809181018460F1CF873F21F447
:102DA000809181018860EBCF883F21F4809181017F
:102DB0008061E5CF8D3F31F4809180018160809307
:102DC000800108958E3F21F4809180018260F7CFC9
:102DD0008F3FB9F7809180018460F1CF909182019B
:102DE000803F41F48091830187FD109283019923F4
:102DF00071F00895813F29F4809183011816ACF396
:102E0000F6CF823F81F497FFF2CF1092820180913A
:102E1000830190918401892B90918501892B49F739
:102E200010927F010895833F19F4191674F3DFCFD0
:102E3000893F39F4809184011816CCF610928401F0
:102E4000D6CF8A3F29F48091840187FFD0CFF6CF77
:102E50008B3F39F48091850187FFC9CF109285019E
:102E6000C6CF8C3F29F4809185011816BCF3BFCFE3
:102E7000843F31F4809181018E7F80938101B7CFAF
:102E8000853F21F4809181018D7FF7CF863F21F42A
:102E9000809181018B7FF1CF873F21F48091810167
:102EA000877FEBCF883F21F4809181018F7EE5CF32
:102EB0008D3F31F4809180018E7F8093800197CF88
:102EC0008E3F21F4809180018D7FF7CF8F3F09F0F5
:102ED0008ECF809180018B7FF0CF81E891E00E94BE
:102EE00038090E94681590937E0180937D010895B2
:102EF000CF93DF9300D000D00F92CDB7DEB785E03F
:102F0000E1E8F1E0DE01119601900D928A95E1F77A
:102F10008091820190918301892B81F080917B01C6
:102F200090917C010E947415AC0190917F019923CE
:102F300029F1809168008417150668F18091840159
:102F400090918501892B91F08091790190917A017E
:102F50000E947415AC0190917F01992309F477C008
:102F6000809164008417150608F47FC00F900F90BD
:102F70000F900F900F90DF91CF91089520916900ED
:102F80008AE0289F9001112424173507B8F69F5F27
:102F900090937F0102C09F3FD1F71092840110925D
:102FA000850180918201181624F40E9403168093F3
:102FB00082018091820187FF05C00E9403168195DE
:102FC0008093820180918301181624F40E940316D5
:102FD000809383018091830187FF05C00E940316BF
:102FE000819580938301309182013323A1F0209158
:102FF0008301222381F045EB3403C001112499237E
:10300000F1F09093820145EB2403900111243323C6
:10301000D1F0309383010E946D1780917D019091D2
:103020007E0190937C0180937B0185E0FE013196C7
:10303000A1E8B1E001900D928A95E1F77FCF81E0A0
:1030400080938201E0CF81E080938301E4CF2091DF
:1030500065008AE0289F900111242417350708F0A5
:1030600085CF9F5F90937F0102C09F3FD1F7109261
:1030700082011092830180918401181624F40E9429
:103080004D16809384018091840187FF05C00E94C2
:103090004D1681958093840180918501181624F442
:1030A0000E944D16809385018091850187FF05C0A0
:1030B0000E944D16819580938501309184013323C0
:1030C000A1F020918501222381F045EB3403C0015A
:1030D00011249923F1F09093840145EB240390018E
:1030E00011243323D1F0309385010E946D17809114
:1030F0007D0190917E0190937A018093790185E022
:10310000FE013196A1E8B1E001900D928A95E1F7B8
:103110002DCF81E080938401E0CF81E08093850111
:10312000E4CF85E0E1E8F1E0DF011D928A95E9F75F
:1031300010927F011092800108950E9468158C0101
:103140000E947D090E947D190E941C090E94541B47
:103150008B9A80E0815031F48B9878940E94850995
:10316000C0E009C0A895EFE9FFE03197F1F700C092
:103170000000F0CFC1E080914F02882399F01092B7
:103180004F020E9468158C010E94671A80915502B7
:10319000882329F08091400284FD0E948D090E94BD
:1031A0003119DECFC8010E947415069718F7CC2399
:1031B00059F3E1CF809117020895CF93DF9300D0A8
:1031C0000F92CDB7DEB790918801981307C0209178
:1031D0008601309187012617370791F08093880187
:1031E000709387016093860189837B836A838091D2
:1031F0006C0284FF05C063E0CE0101960E94631A51
:103200000F900F900F90DF91CF910895BC0184E053
:103210000C94DD18BC0183E00C94DD18CF93DF9390
:1032200000D000D000D0CDB7DEB7FC0182E08983AA
:1032300095E0DE01129601900D929A95E1F780914A
:103240006C0284FF05C066E0CE0101960E94631AFD
:1032500026960FB6F894DEBF0FBECDBFDF91CF919B
:103260000895CF93DF93CAE0D0E08091400284FFBD
:103270001AC08091940190919501981789F028E0E7
:10328000829FC001112468E08A569E4F0E945F1AF7
:103290008091940190E001968F709927809394011A
:1032A000DF91CF9108950E94671A8FE99FE00197FF
:1032B000F1F700C000002197C1F6F2CFFC01A09108
:1032C0009501B0E09D012F5F3F4F2F703327809114
:1032D0009401821771F083E0AA0FBB1F8A95E1F772
:1032E000AA56BE4F98E001900D929A95E1F720936F
:1032F00095010E94671A0C9431198AE690E00895AE
:10330000FC01808180768032D1F48181813041F46A
:103310008CE891E0909351028093500288E00895E8
:10332000823041F486E192E0909351028093500202
:1033300081E008958A3029F483818093160280E029
:1033400008958930E1F7828193818115924069F473
:1033500084819581892B49F481E080938B0186815A
:10336000978190938A01809389018FEF0895FC01E2
:103370008091890190918A01892B61F080918B0164
:10338000813041F490819093170210928A0110923B
:10339000890108958FEF0895FC019381933059F1CD
:1033A00030F49130C1F09230F1F080E00895913224
:1033B00009F445C09232C9F784819581009709F4D8
:1033C0004FC0019791F783E492E09093510280936C
:1033D000500281E8089587EF91E090935102809325
:1033E000500282E108958CEB91E09093510280931A
:1033F00050028BE308958281813089F0882339F06F
:103400008230A9F0833089F689E092E002C08FE330
:1034100092E0909351028093500284E0089585E2F7
:1034200092E0909351028093500288E108958FE0DA
:1034300092E0909351028093500284E1089582813A
:10344000882331F0813009F0B0CF87EE91E002C0DF
:103450008EEC91E0909351028093500289E00895A0
:1034600084EC92E0909351028093500280E408959E
:103470001F93CF93DF93E82F792F162FEA018881CE
:1034800084FF1AC0298188E828272983CE01029663
:10349000DC012E2F372F412F4E0FF90121912D9353
:1034A0009F014E13FACF612F0E94DD011C5F18832C
:1034B000DF91CF911F9108958AE58883E7CF40E49B
:1034C00052E00C94381A4CE652E00C94381ACF9320
:1034D000DF9360915202635067FD2BC080914E02D2
:1034E000CCE0D0E0C81BD109CA5ADD4F80914D0213
:1034F0008D3209F0B9C06830D1F483EC8093350285
:103500008AE580937500109218028881807609F40C
:103510005FC0CE010E9480198F3F09F068C098817A
:1035200097FD8E8190E8909318028093740010921A
:1035300052028091750084FF3EC0809174008F3FDD
:10354000D1F1C82F893008F0C8E0982F9C1B9093C8
:1035500074009091350228E89227909335028823D1
:10356000E9F08091500290915102209118023C2F75
:10357000380F26FF8CC0FC01A6E3B2E024912D9306
:1035800031963E13FBCF2FEF2C0F30E02F5F3F4FD4
:10359000820F931F90935102809350026C2F86E309
:1035A00092E00E94DD01CC5FCC3019F08FEF809368
:1035B0007400C093750084E190B39C7031F4815025
:1035C000D9F71092530210924C02DF91CF910895D7
:1035D0002A8110923E029981911112C010923F02ED
:1035E0002EE332E082E030935102209350029F811B
:1035F00091119BCF9E81981708F097CF892F95CF77
:10360000953029F4209353022EE332E0ECCF96302C
:1036100099F49B81913021F4CE010E94CC1908C00D
:103620009230D1F39330C1F39132B1F39232A1F3DE
:1036300090E49093180270CF983079F0993019F493
:1036400020935502E1CF9A3061F09B30E9F69BE47C
:103650009093410290936D02D7CF25E532E081E04F
:10366000C2CF2EE332E0FBCF8091180287FF5FCFFD
:10367000CE010E94B7198F3F21F48EE1809375002F
:1036800056CF882309F453CF1092740050CFA6E38D
:10369000B2E0282F492FE22FF42F21912D932E2FC6
:1036A0004F2F3E13F8CF6FCF85B7886085BF8BB79C
:1036B00080688BBFA0E4B2E08BE411968C931197E5
:1036C000ECE6F2E081838AE58C938083089597FB92
:1036D000072E16F4009407D077FD09D00E94811BB5
:1036E00007FC05D03EF4909581959F4F0895709505
:1036F00061957F4F0895EE0FFF1F0590F491E02D27
:103700000994AA1BBB1B51E107C0AA1FBB1FA61728
:10371000B70710F0A61BB70B881F991F5A95A9F77A
:1037200080959095BC01CD010895E199FECF9FBB96
:103730008EBBE09A99278DB30895A8E1B0E042E0EE
:1037400050E00C94C81B262FE199FECF9FBB8EBB87
:10375000E09A01970DB2021631F02DBB0FB6F89426
:10376000E29AE19A0FBE08950396272F0E94A41BA8
:103770000E94A31B252F0E94A41B242F0C94A41B82
:103780000196272F0E94A41B0C94A31BDC01CB01E4
:10379000FC01E199FECF06C0FFBBEEBBE09A31967B
:1037A0000DB20D9241505040B8F70895F894FFCFF4
:1037B000AA0BAA0B020C020C540C700CD70BD70BE3
:1037C000B20C3E0D4D0D4D0DA90DD70BD70BB20D03
:1037D0001B0E1B0E240E240E260E240E240E240E69
:0C37E0001B0E1B0E2B0E240E240E2B0EB5
:1037EC006D012808641E140A321EDA185E190E19AF
:1037FC000A190619FF5AE200E900EA00B500B60002
:10380C00B700CD008301CC008A0192019401210202
:10381C00230224022502260227022A02B300B40046
:10382C006F00700081828397969594649363926283
:10383C009161906031053006E200E900EA00B500C4
:10384C00B600B700CD008301CC008A01920194012F
:10385C002102230224022502260227022A02B30097
:0A386C00B4006F0070008182830039
:00000001FF
